{
  "contractName": "Lottery",
  "abi": [
    {
      "inputs": [],
      "stateMutability": "nonpayable",
      "type": "constructor"
    },
    {
      "inputs": [],
      "name": "luckyNumber",
      "outputs": [
        {
          "internalType": "uint256",
          "name": "",
          "type": "uint256"
        }
      ],
      "stateMutability": "view",
      "type": "function",
      "constant": true
    },
    {
      "inputs": [],
      "name": "manager",
      "outputs": [
        {
          "internalType": "address",
          "name": "",
          "type": "address"
        }
      ],
      "stateMutability": "view",
      "type": "function",
      "constant": true
    },
    {
      "inputs": [],
      "name": "name",
      "outputs": [
        {
          "internalType": "string",
          "name": "",
          "type": "string"
        }
      ],
      "stateMutability": "view",
      "type": "function",
      "constant": true
    },
    {
      "inputs": [
        {
          "internalType": "uint256",
          "name": "",
          "type": "uint256"
        }
      ],
      "name": "players",
      "outputs": [
        {
          "internalType": "uint256",
          "name": "number",
          "type": "uint256"
        },
        {
          "internalType": "address payable",
          "name": "playerAddress",
          "type": "address"
        }
      ],
      "stateMutability": "view",
      "type": "function",
      "constant": true
    },
    {
      "inputs": [],
      "name": "winner",
      "outputs": [
        {
          "internalType": "address payable",
          "name": "",
          "type": "address"
        }
      ],
      "stateMutability": "view",
      "type": "function",
      "constant": true
    },
    {
      "inputs": [
        {
          "internalType": "uint256",
          "name": "number",
          "type": "uint256"
        }
      ],
      "name": "enter",
      "outputs": [],
      "stateMutability": "payable",
      "type": "function",
      "payable": true
    },
    {
      "inputs": [],
      "name": "pickWinner",
      "outputs": [],
      "stateMutability": "payable",
      "type": "function",
      "payable": true
    },
    {
      "inputs": [],
      "name": "getPlayers",
      "outputs": [
        {
          "components": [
            {
              "internalType": "uint256",
              "name": "number",
              "type": "uint256"
            },
            {
              "internalType": "address payable",
              "name": "playerAddress",
              "type": "address"
            }
          ],
          "internalType": "struct Lottery.Player[]",
          "name": "",
          "type": "tuple[]"
        }
      ],
      "stateMutability": "view",
      "type": "function",
      "constant": true
    },
    {
      "inputs": [],
      "name": "getWinnerData",
      "outputs": [
        {
          "internalType": "address payable",
          "name": "",
          "type": "address"
        },
        {
          "internalType": "uint256",
          "name": "",
          "type": "uint256"
        }
      ],
      "stateMutability": "view",
      "type": "function",
      "constant": true
    }
  ],
  "bytecode": "0x608060405234801561001057600080fd5b50336000806101000a81548173ffffffffffffffffffffffffffffffffffffffff021916908373ffffffffffffffffffffffffffffffffffffffff160217905550611056806100606000396000f3fe6080604052600436106100865760003560e01c80638b5b9ccc116100595780638b5b9ccc14610117578063a59f3e0c14610142578063bf205ebc1461015e578063dfbf53ae14610189578063f71d96cb146101b457610086565b806306fdde031461008b5780633c3418f9146100b6578063481c6a75146100e25780635d495aea1461010d575b600080fd5b34801561009757600080fd5b506100a06101f2565b6040516100ad91906109b3565b60405180910390f35b3480156100c257600080fd5b506100cb610280565b6040516100d9929190610a2f565b60405180910390f35b3480156100ee57600080fd5b506100f7610343565b6040516101049190610a79565b60405180910390f35b610115610367565b005b34801561012357600080fd5b5061012c6105f2565b6040516101399190610b90565b60405180910390f35b61015c60048036038101906101579190610be3565b6106b1565b005b34801561016a57600080fd5b506101736107f1565b6040516101809190610c10565b60405180910390f35b34801561019557600080fd5b5061019e6107f7565b6040516101ab9190610c2b565b60405180910390f35b3480156101c057600080fd5b506101db60048036038101906101d69190610be3565b61081d565b6040516101e9929190610c46565b60405180910390f35b600180546101ff90610c9e565b80601f016020809104026020016040519081016040528092919081815260200182805461022b90610c9e565b80156102785780601f1061024d57610100808354040283529160200191610278565b820191906000526020600020905b81548152906001019060200180831161025b57829003601f168201915b505050505081565b600080600073ffffffffffffffffffffffffffffffffffffffff16600460009054906101000a900473ffffffffffffffffffffffffffffffffffffffff1673ffffffffffffffffffffffffffffffffffffffff161415610315576040517f08c379a000000000000000000000000000000000000000000000000000000000815260040161030c90610d1c565b60405180910390fd5b600460009054906101000a900473ffffffffffffffffffffffffffffffffffffffff16600354915091509091565b60008054906101000a900473ffffffffffffffffffffffffffffffffffffffff1681565b60008054906101000a900473ffffffffffffffffffffffffffffffffffffffff1673ffffffffffffffffffffffffffffffffffffffff163373ffffffffffffffffffffffffffffffffffffffff16146103f5576040517f08c379a00000000000000000000000000000000000000000000000000000000081526004016103ec90610dae565b60405180910390fd5b6103fd610871565b60038190555060005b6002805490508110156104e0576003546002828154811061042a57610429610dce565b5b90600052602060002090600202016000015414156104cd576002818154811061045657610455610dce565b5b906000526020600020906002020160010160009054906101000a900473ffffffffffffffffffffffffffffffffffffffff16600460006101000a81548173ffffffffffffffffffffffffffffffffffffffff021916908373ffffffffffffffffffffffffffffffffffffffff1602179055506104e0565b80806104d890610e2c565b915050610406565b50600073ffffffffffffffffffffffffffffffffffffffff16600460009054906101000a900473ffffffffffffffffffffffffffffffffffffffff1673ffffffffffffffffffffffffffffffffffffffff161415610573576040517f08c379a000000000000000000000000000000000000000000000000000000000815260040161056a90610d1c565b60405180910390fd5b6000479050600460009054906101000a900473ffffffffffffffffffffffffffffffffffffffff1673ffffffffffffffffffffffffffffffffffffffff166108fc829081150290604051600060405180830381858888f193505050501580156105e0573d6000803e3d6000fd5b50600260006105ef91906108b0565b50565b60606002805480602002602001604051908101604052809291908181526020016000905b828210156106a85783829060005260206000209060020201604051806040016040529081600082015481526020016001820160009054906101000a900473ffffffffffffffffffffffffffffffffffffffff1673ffffffffffffffffffffffffffffffffffffffff1673ffffffffffffffffffffffffffffffffffffffff168152505081526020019060010190610616565b50505050905090565b600081101580156106c3575060098111155b610702576040517f08c379a00000000000000000000000000000000000000000000000000000000081526004016106f990610ec1565b60405180910390fd5b60003411610745576040517f08c379a000000000000000000000000000000000000000000000000000000000815260040161073c90610f53565b60405180910390fd5b600260405180604001604052808381526020013373ffffffffffffffffffffffffffffffffffffffff1681525090806001815401808255809150506001900390600052602060002090600202016000909190919091506000820151816000015560208201518160010160006101000a81548173ffffffffffffffffffffffffffffffffffffffff021916908373ffffffffffffffffffffffffffffffffffffffff160217905550505050565b60035481565b600460009054906101000a900473ffffffffffffffffffffffffffffffffffffffff1681565b6002818154811061082d57600080fd5b90600052602060002090600202016000915090508060000154908060010160009054906101000a900473ffffffffffffffffffffffffffffffffffffffff16905082565b600060024442604051602001610888929190610f94565b6040516020818303038152906040528051906020012060001c6108ab9190610fef565b905090565b50805460008255600202906000526020600020908101906108d191906108d4565b50565b5b80821115610916576000808201600090556001820160006101000a81549073ffffffffffffffffffffffffffffffffffffffff0219169055506002016108d5565b5090565b600081519050919050565b600082825260208201905092915050565b60005b83811015610954578082015181840152602081019050610939565b83811115610963576000848401525b50505050565b6000601f19601f8301169050919050565b60006109858261091a565b61098f8185610925565b935061099f818560208601610936565b6109a881610969565b840191505092915050565b600060208201905081810360008301526109cd818461097a565b905092915050565b600073ffffffffffffffffffffffffffffffffffffffff82169050919050565b6000610a00826109d5565b9050919050565b610a10816109f5565b82525050565b6000819050919050565b610a2981610a16565b82525050565b6000604082019050610a446000830185610a07565b610a516020830184610a20565b9392505050565b6000610a63826109d5565b9050919050565b610a7381610a58565b82525050565b6000602082019050610a8e6000830184610a6a565b92915050565b600081519050919050565b600082825260208201905092915050565b6000819050602082019050919050565b610ac981610a16565b82525050565b610ad8816109f5565b82525050565b604082016000820151610af46000850182610ac0565b506020820151610b076020850182610acf565b50505050565b6000610b198383610ade565b60408301905092915050565b6000602082019050919050565b6000610b3d82610a94565b610b478185610a9f565b9350610b5283610ab0565b8060005b83811015610b83578151610b6a8882610b0d565b9750610b7583610b25565b925050600181019050610b56565b5085935050505092915050565b60006020820190508181036000830152610baa8184610b32565b905092915050565b600080fd5b610bc081610a16565b8114610bcb57600080fd5b50565b600081359050610bdd81610bb7565b92915050565b600060208284031215610bf957610bf8610bb2565b5b6000610c0784828501610bce565b91505092915050565b6000602082019050610c256000830184610a20565b92915050565b6000602082019050610c406000830184610a07565b92915050565b6000604082019050610c5b6000830185610a20565b610c686020830184610a07565b9392505050565b7f4e487b7100000000000000000000000000000000000000000000000000000000600052602260045260246000fd5b60006002820490506001821680610cb657607f821691505b60208210811415610cca57610cc9610c6f565b5b50919050565b7f4e6f2077696e6e657220666f756e640000000000000000000000000000000000600082015250565b6000610d06600f83610925565b9150610d1182610cd0565b602082019050919050565b60006020820190508181036000830152610d3581610cf9565b9050919050565b7f4f6e6c7920746865206d616e616765722063616e207069636b2074686520776960008201527f6e6e657200000000000000000000000000000000000000000000000000000000602082015250565b6000610d98602483610925565b9150610da382610d3c565b604082019050919050565b60006020820190508181036000830152610dc781610d8b565b9050919050565b7f4e487b7100000000000000000000000000000000000000000000000000000000600052603260045260246000fd5b7f4e487b7100000000000000000000000000000000000000000000000000000000600052601160045260246000fd5b6000610e3782610a16565b91507fffffffffffffffffffffffffffffffffffffffffffffffffffffffffffffffff821415610e6a57610e69610dfd565b5b600182019050919050565b7f4e756d6265722073686f756c64206265206265747765656e203020616e642039600082015250565b6000610eab602083610925565b9150610eb682610e75565b602082019050919050565b60006020820190508181036000830152610eda81610e9e565b9050919050565b7f506c656173652073656e6420736f6d6520657468657220746f20656e7465722060008201527f746865206c6f7474657279000000000000000000000000000000000000000000602082015250565b6000610f3d602b83610925565b9150610f4882610ee1565b604082019050919050565b60006020820190508181036000830152610f6c81610f30565b9050919050565b6000819050919050565b610f8e610f8982610a16565b610f73565b82525050565b6000610fa08285610f7d565b602082019150610fb08284610f7d565b6020820191508190509392505050565b7f4e487b7100000000000000000000000000000000000000000000000000000000600052601260045260246000fd5b6000610ffa82610a16565b915061100583610a16565b92508261101557611014610fc0565b5b82820690509291505056fea26469706673582212208582731d7a5b65d25418ab3a6fcb920bca0d65695812ba3a9b2a1771be01fb7264736f6c634300080a0033",
  "immutableReferences": {},
  "source": "// SPDX-License-Identifier: MIT\r\n\r\npragma solidity ^0.8.6;\r\n\r\ncontract Lottery {\r\n    address public manager;\r\n    string public name;\r\n    struct Player {\r\n        uint number;\r\n        address payable playerAddress;\r\n    }\r\n    Player[] public players;\r\n    uint public luckyNumber;\r\n    address payable public winner;\r\n\r\n    constructor() {\r\n        manager = msg.sender;\r\n    }\r\n\r\n    function enter(uint number) public payable {\r\n        require(number >= 0 && number <= 9, \"Number should be between 0 and 9\");\r\n        require(msg.value > 0, \"Please send some ether to enter the lottery\");\r\n\r\n        players.push(Player(number, payable(msg.sender)));\r\n    }\r\n\r\n    function random() private view returns (uint256) {\r\n        return uint256(keccak256(abi.encodePacked(block.difficulty, block.timestamp))) % 2;\r\n    }\r\n\r\n    function pickWinner() public payable restricted {\r\n        luckyNumber = random();\r\n\r\n        for (uint256 i = 0; i < players.length; i++) {\r\n            if (players[i].number == luckyNumber) {\r\n                winner = players[i].playerAddress;\r\n                break;\r\n            }\r\n        }\r\n\r\n        require(winner != address(0), \"No winner found\");\r\n\r\n        uint256 prize = address(this).balance;\r\n\r\n        winner.transfer(prize);\r\n\r\n        delete players;\r\n    }\r\n\r\n\r\n    modifier restricted() {\r\n        require(msg.sender == manager, \"Only the manager can pick the winner\");\r\n        _;\r\n    }\r\n\r\n    function getPlayers() public view returns (Player[] memory) {\r\n        return players;\r\n    }\r\n\r\n    function getWinnerData() public view returns (address payable, uint) {\r\n        require(winner != address(0), \"No winner found\");\r\n        return (winner, luckyNumber);\r\n    }\r\n}\r\n",
  "sourcePath": "D:\\Do an\\bingo-game\\contracts\\Lottery.sol",
  "compiler": {
    "name": "solc",
    "version": "0.8.10+commit.fc410830.Emscripten.clang"
  },
  "schemaVersion": "3.4.14",
  "updatedAt": "2023-07-03T19:12:30.851Z",
  "networkType": "ethereum",
  "devdoc": {
    "kind": "dev",
    "methods": {},
    "version": 1
  },
  "userdoc": {
    "kind": "user",
    "methods": {},
    "version": 1
  }
}