{
  "contractName": "Lottery",
  "abi": [
    {
      "inputs": [],
      "stateMutability": "nonpayable",
      "type": "constructor"
    },
    {
      "anonymous": false,
      "inputs": [
        {
          "indexed": false,
          "internalType": "uint256",
          "name": "luckyNumber",
          "type": "uint256"
        }
      ],
      "name": "NoWinnerFound",
      "type": "event"
    },
    {
      "anonymous": false,
      "inputs": [
        {
          "components": [
            {
              "internalType": "uint256",
              "name": "number",
              "type": "uint256"
            },
            {
              "internalType": "address payable",
              "name": "playerAddress",
              "type": "address"
            }
          ],
          "indexed": false,
          "internalType": "struct Lottery.Player[]",
          "name": "players",
          "type": "tuple[]"
        }
      ],
      "name": "PlayerEntered",
      "type": "event"
    },
    {
      "anonymous": false,
      "inputs": [
        {
          "indexed": false,
          "internalType": "uint256",
          "name": "luckyNumber",
          "type": "uint256"
        },
        {
          "indexed": false,
          "internalType": "address",
          "name": "winner",
          "type": "address"
        }
      ],
      "name": "WinnerPicked",
      "type": "event"
    },
    {
      "inputs": [],
      "name": "luckyNumber",
      "outputs": [
        {
          "internalType": "uint256",
          "name": "",
          "type": "uint256"
        }
      ],
      "stateMutability": "view",
      "type": "function",
      "constant": true
    },
    {
      "inputs": [],
      "name": "manager",
      "outputs": [
        {
          "internalType": "address",
          "name": "",
          "type": "address"
        }
      ],
      "stateMutability": "view",
      "type": "function",
      "constant": true
    },
    {
      "inputs": [],
      "name": "name",
      "outputs": [
        {
          "internalType": "string",
          "name": "",
          "type": "string"
        }
      ],
      "stateMutability": "view",
      "type": "function",
      "constant": true
    },
    {
      "inputs": [
        {
          "internalType": "uint256",
          "name": "",
          "type": "uint256"
        }
      ],
      "name": "players",
      "outputs": [
        {
          "internalType": "uint256",
          "name": "number",
          "type": "uint256"
        },
        {
          "internalType": "address payable",
          "name": "playerAddress",
          "type": "address"
        }
      ],
      "stateMutability": "view",
      "type": "function",
      "constant": true
    },
    {
      "inputs": [
        {
          "internalType": "uint256",
          "name": "number",
          "type": "uint256"
        }
      ],
      "name": "enter",
      "outputs": [],
      "stateMutability": "payable",
      "type": "function",
      "payable": true
    },
    {
      "inputs": [],
      "name": "pickWinner",
      "outputs": [],
      "stateMutability": "payable",
      "type": "function",
      "payable": true
    },
    {
      "inputs": [],
      "name": "getPlayers",
      "outputs": [
        {
          "components": [
            {
              "internalType": "uint256",
              "name": "number",
              "type": "uint256"
            },
            {
              "internalType": "address payable",
              "name": "playerAddress",
              "type": "address"
            }
          ],
          "internalType": "struct Lottery.Player[]",
          "name": "",
          "type": "tuple[]"
        }
      ],
      "stateMutability": "view",
      "type": "function",
      "constant": true
    }
  ],
  "bytecode": "0x608060405234801561001057600080fd5b50336000806101000a81548173ffffffffffffffffffffffffffffffffffffffff021916908373ffffffffffffffffffffffffffffffffffffffff1602179055506110c3806100606000396000f3fe6080604052600436106100705760003560e01c80638b5b9ccc1161004e5780638b5b9ccc146100d5578063a59f3e0c14610100578063bf205ebc1461011c578063f71d96cb1461014757610070565b806306fdde0314610075578063481c6a75146100a05780635d495aea146100cb575b600080fd5b34801561008157600080fd5b5061008a610185565b6040516100979190610873565b60405180910390f35b3480156100ac57600080fd5b506100b5610213565b6040516100c291906108d6565b60405180910390f35b6100d3610237565b005b3480156100e157600080fd5b506100ea610493565b6040516100f79190610a09565b60405180910390f35b61011a60048036038101906101159190610a5c565b610552565b005b34801561012857600080fd5b506101316106ca565b60405161013e9190610a98565b60405180910390f35b34801561015357600080fd5b5061016e60048036038101906101699190610a5c565b6106d0565b60405161017c929190610ac2565b60405180910390f35b6001805461019290610b1a565b80601f01602080910402602001604051908101604052809291908181526020018280546101be90610b1a565b801561020b5780601f106101e05761010080835404028352916020019161020b565b820191906000526020600020905b8154815290600101906020018083116101ee57829003601f168201915b505050505081565b60008054906101000a900473ffffffffffffffffffffffffffffffffffffffff1681565b60008054906101000a900473ffffffffffffffffffffffffffffffffffffffff1673ffffffffffffffffffffffffffffffffffffffff163373ffffffffffffffffffffffffffffffffffffffff16146102c5576040517f08c379a00000000000000000000000000000000000000000000000000000000081526004016102bc90610bbe565b60405180910390fd5b6102cd610724565b600381905550600080600090505b60028054905081101561037757600354600282815481106102ff576102fe610bde565b5b9060005260206000209060020201600001541415610364576002818154811061032b5761032a610bde565b5b906000526020600020906002020160010160009054906101000a900473ffffffffffffffffffffffffffffffffffffffff169150610377565b808061036f90610c3c565b9150506102db565b50600073ffffffffffffffffffffffffffffffffffffffff168173ffffffffffffffffffffffffffffffffffffffff1614156103f957600260006103bb9190610770565b7f524e58d82bb07aadec06a8b561ef2be63626ea0aec9c31b2d4aacf6f10297a3d6003546040516103ec9190610a98565b60405180910390a1610490565b60004790508173ffffffffffffffffffffffffffffffffffffffff166108fc829081150290604051600060405180830381858888f19350505050158015610444573d6000803e3d6000fd5b50600260006104539190610770565b7f7286599a58b2822d6e330944038c6d3424134069b04156404050720b942d87ee60035483604051610486929190610ce4565b60405180910390a1505b50565b60606002805480602002602001604051908101604052809291908181526020016000905b828210156105495783829060005260206000209060020201604051806040016040529081600082015481526020016001820160009054906101000a900473ffffffffffffffffffffffffffffffffffffffff1673ffffffffffffffffffffffffffffffffffffffff1673ffffffffffffffffffffffffffffffffffffffff1681525050815260200190600101906104b7565b50505050905090565b60008110158015610564575060098111155b6105a3576040517f08c379a000000000000000000000000000000000000000000000000000000000815260040161059a90610d59565b60405180910390fd5b600034116105e6576040517f08c379a00000000000000000000000000000000000000000000000000000000081526004016105dd90610deb565b60405180910390fd5b600260405180604001604052808381526020013373ffffffffffffffffffffffffffffffffffffffff1681525090806001815401808255809150506001900390600052602060002090600202016000909190919091506000820151816000015560208201518160010160006101000a81548173ffffffffffffffffffffffffffffffffffffffff021916908373ffffffffffffffffffffffffffffffffffffffff16021790555050507f64ebd331a30ca4107bb048a713d021fb968f2f18a1a7620f4ccce787a8cc24c660026040516106bf9190610f5f565b60405180910390a150565b60035481565b600281815481106106e057600080fd5b90600052602060002090600202016000915090508060000154908060010160009054906101000a900473ffffffffffffffffffffffffffffffffffffffff16905082565b600060026001436107359190610f81565b4042604051602001610748929190611001565b6040516020818303038152906040528051906020012060001c61076b919061105c565b905090565b50805460008255600202906000526020600020908101906107919190610794565b50565b5b808211156107d6576000808201600090556001820160006101000a81549073ffffffffffffffffffffffffffffffffffffffff021916905550600201610795565b5090565b600081519050919050565b600082825260208201905092915050565b60005b838110156108145780820151818401526020810190506107f9565b83811115610823576000848401525b50505050565b6000601f19601f8301169050919050565b6000610845826107da565b61084f81856107e5565b935061085f8185602086016107f6565b61086881610829565b840191505092915050565b6000602082019050818103600083015261088d818461083a565b905092915050565b600073ffffffffffffffffffffffffffffffffffffffff82169050919050565b60006108c082610895565b9050919050565b6108d0816108b5565b82525050565b60006020820190506108eb60008301846108c7565b92915050565b600081519050919050565b600082825260208201905092915050565b6000819050602082019050919050565b6000819050919050565b6109308161091d565b82525050565b600061094182610895565b9050919050565b61095181610936565b82525050565b60408201600082015161096d6000850182610927565b5060208201516109806020850182610948565b50505050565b60006109928383610957565b60408301905092915050565b6000602082019050919050565b60006109b6826108f1565b6109c081856108fc565b93506109cb8361090d565b8060005b838110156109fc5781516109e38882610986565b97506109ee8361099e565b9250506001810190506109cf565b5085935050505092915050565b60006020820190508181036000830152610a2381846109ab565b905092915050565b600080fd5b610a398161091d565b8114610a4457600080fd5b50565b600081359050610a5681610a30565b92915050565b600060208284031215610a7257610a71610a2b565b5b6000610a8084828501610a47565b91505092915050565b610a928161091d565b82525050565b6000602082019050610aad6000830184610a89565b92915050565b610abc81610936565b82525050565b6000604082019050610ad76000830185610a89565b610ae46020830184610ab3565b9392505050565b7f4e487b7100000000000000000000000000000000000000000000000000000000600052602260045260246000fd5b60006002820490506001821680610b3257607f821691505b60208210811415610b4657610b45610aeb565b5b50919050565b7f4f6e6c7920746865206d616e616765722063616e207069636b2074686520776960008201527f6e6e657200000000000000000000000000000000000000000000000000000000602082015250565b6000610ba86024836107e5565b9150610bb382610b4c565b604082019050919050565b60006020820190508181036000830152610bd781610b9b565b9050919050565b7f4e487b7100000000000000000000000000000000000000000000000000000000600052603260045260246000fd5b7f4e487b7100000000000000000000000000000000000000000000000000000000600052601160045260246000fd5b6000610c478261091d565b91507fffffffffffffffffffffffffffffffffffffffffffffffffffffffffffffffff821415610c7a57610c79610c0d565b5b600182019050919050565b6000819050919050565b6000610caa610ca5610ca084610895565b610c85565b610895565b9050919050565b6000610cbc82610c8f565b9050919050565b6000610cce82610cb1565b9050919050565b610cde81610cc3565b82525050565b6000604082019050610cf96000830185610a89565b610d066020830184610cd5565b9392505050565b7f4e756d6265722073686f756c64206265206265747765656e203020616e642039600082015250565b6000610d436020836107e5565b9150610d4e82610d0d565b602082019050919050565b60006020820190508181036000830152610d7281610d36565b9050919050565b7f506c656173652073656e6420736f6d6520657468657220746f20656e7465722060008201527f746865206c6f7474657279000000000000000000000000000000000000000000602082015250565b6000610dd5602b836107e5565b9150610de082610d79565b604082019050919050565b60006020820190508181036000830152610e0481610dc8565b9050919050565b600081549050919050565b60008190508160005260206000209050919050565b60008160001c9050919050565b6000819050919050565b6000610e55610e5083610e2b565b610e38565b9050919050565b600073ffffffffffffffffffffffffffffffffffffffff82169050919050565b6000610e8f610e8a83610e2b565b610e5c565b9050919050565b604082016000808301549050610eab81610e42565b610eb86000860182610927565b5060018301549050610ec981610e7c565b610ed66020860182610948565b5050505050565b6000610ee98383610e96565b60408301905092915050565b6000600282019050919050565b6000610f0d82610e0b565b610f1781856108fc565b9350610f2283610e16565b8060005b83811015610f525781610f398882610edd565b9750610f4483610ef5565b925050600181019050610f26565b5085935050505092915050565b60006020820190508181036000830152610f798184610f02565b905092915050565b6000610f8c8261091d565b9150610f978361091d565b925082821015610faa57610fa9610c0d565b5b828203905092915050565b6000819050919050565b6000819050919050565b610fda610fd582610fb5565b610fbf565b82525050565b6000819050919050565b610ffb610ff68261091d565b610fe0565b82525050565b600061100d8285610fc9565b60208201915061101d8284610fea565b6020820191508190509392505050565b7f4e487b7100000000000000000000000000000000000000000000000000000000600052601260045260246000fd5b60006110678261091d565b91506110728361091d565b9250826110825761108161102d565b5b82820690509291505056fea26469706673582212206a0f732fed6656f1b45685d3c35c4712890ba9e3654fb727eaa5509b3444513c64736f6c634300080a0033",
  "immutableReferences": {},
  "source": "// SPDX-License-Identifier: MIT\r\n\r\npragma solidity ^0.8.6;\r\n\r\ncontract Lottery {\r\n    address public manager;\r\n    string public name;\r\n    struct Player {\r\n        uint number;\r\n        address payable playerAddress;\r\n    }\r\n    Player[] public players;\r\n    uint public luckyNumber;\r\n\r\n    event PlayerEntered(Player[] players);\r\n    event WinnerPicked(uint256 luckyNumber, address winner);\r\n    event NoWinnerFound(uint256 luckyNumber);\r\n\r\n    constructor() {\r\n        manager = msg.sender;\r\n    }\r\n\r\n    function enter(uint number) public payable {\r\n        require(number >= 0 && number <= 9, \"Number should be between 0 and 9\");\r\n        require(msg.value > 0, \"Please send some ether to enter the lottery\");\r\n\r\n        players.push(Player(number, payable(msg.sender)));\r\n\r\n        emit PlayerEntered(players);\r\n    }\r\n\r\n    function random() private view returns (uint256) {\r\n        return uint256(keccak256(abi.encodePacked(blockhash(block.number - 1), block.timestamp))) % 2;\r\n    }\r\n\r\n    function pickWinner() public payable restricted {\r\n        luckyNumber = random();\r\n        address payable winner;\r\n\r\n        for (uint256 i = 0; i < players.length; i++) {\r\n            if (players[i].number == luckyNumber) {\r\n                winner = players[i].playerAddress;\r\n                break;\r\n            }\r\n        }\r\n\r\n        if (winner == address(0)) {\r\n            delete players;\r\n\r\n            emit NoWinnerFound(luckyNumber);\r\n        } else {\r\n            uint256 prize = address(this).balance;\r\n            winner.transfer(prize);\r\n\r\n            delete players;\r\n\r\n            emit WinnerPicked(luckyNumber, winner);\r\n        }\r\n    }\r\n\r\n    modifier restricted() {\r\n        require(msg.sender == manager, \"Only the manager can pick the winner\");\r\n        _;\r\n    }\r\n\r\n    function getPlayers() public view returns (Player[] memory) {\r\n        return players;\r\n    }\r\n}\r\n",
  "sourcePath": "D:\\Do an\\bingo-game\\contracts\\Lottery.sol",
  "compiler": {
    "name": "solc",
    "version": "0.8.10+commit.fc410830.Emscripten.clang"
  },
  "schemaVersion": "3.4.14",
  "updatedAt": "2023-07-04T16:31:31.794Z",
  "networkType": "ethereum",
  "devdoc": {
    "kind": "dev",
    "methods": {},
    "version": 1
  },
  "userdoc": {
    "kind": "user",
    "methods": {},
    "version": 1
  }
}