{
  "contractName": "Lottery",
  "abi": [
    {
      "inputs": [],
      "stateMutability": "nonpayable",
      "type": "constructor"
    },
    {
      "inputs": [],
      "name": "manager",
      "outputs": [
        {
          "internalType": "address",
          "name": "",
          "type": "address"
        }
      ],
      "stateMutability": "view",
      "type": "function",
      "constant": true
    },
    {
      "inputs": [],
      "name": "name",
      "outputs": [
        {
          "internalType": "string",
          "name": "",
          "type": "string"
        }
      ],
      "stateMutability": "view",
      "type": "function",
      "constant": true
    },
    {
      "inputs": [
        {
          "internalType": "uint256",
          "name": "",
          "type": "uint256"
        }
      ],
      "name": "players",
      "outputs": [
        {
          "internalType": "address payable",
          "name": "",
          "type": "address"
        }
      ],
      "stateMutability": "view",
      "type": "function",
      "constant": true
    },
    {
      "inputs": [],
      "name": "enter",
      "outputs": [],
      "stateMutability": "payable",
      "type": "function",
      "payable": true
    },
    {
      "inputs": [],
      "name": "pickWinner",
      "outputs": [],
      "stateMutability": "payable",
      "type": "function",
      "payable": true
    },
    {
      "inputs": [],
      "name": "getPlayers",
      "outputs": [
        {
          "internalType": "address payable[]",
          "name": "",
          "type": "address[]"
        }
      ],
      "stateMutability": "view",
      "type": "function",
      "constant": true
    }
  ],
  "bytecode": "0x608060405234801561001057600080fd5b50336000806101000a81548173ffffffffffffffffffffffffffffffffffffffff021916908373ffffffffffffffffffffffffffffffffffffffff160217905550610ac4806100606000396000f3fe6080604052600436106100555760003560e01c806306fdde031461005a578063481c6a75146100855780635d495aea146100b05780638b5b9ccc146100ba578063e97dcb62146100e5578063f71d96cb146100ef575b600080fd5b34801561006657600080fd5b5061006f61012c565b60405161007c91906105f5565b60405180910390f35b34801561009157600080fd5b5061009a6101ba565b6040516100a79190610658565b60405180910390f35b6100b86101de565b005b3480156100c657600080fd5b506100cf61033a565b6040516100dc9190610743565b60405180910390f35b6100ed6103c8565b005b3480156100fb57600080fd5b50610116600480360381019061011191906107a0565b610440565b60405161012391906107dc565b60405180910390f35b6001805461013990610826565b80601f016020809104026020016040519081016040528092919081815260200182805461016590610826565b80156101b25780601f10610187576101008083540402835291602001916101b2565b820191906000526020600020905b81548152906001019060200180831161019557829003601f168201915b505050505081565b60008054906101000a900473ffffffffffffffffffffffffffffffffffffffff1681565b60008054906101000a900473ffffffffffffffffffffffffffffffffffffffff1673ffffffffffffffffffffffffffffffffffffffff163373ffffffffffffffffffffffffffffffffffffffff161461023657600080fd5b600060028054905061024661047f565b6102509190610887565b905060028181548110610266576102656108b8565b5b9060005260206000200160009054906101000a900473ffffffffffffffffffffffffffffffffffffffff1673ffffffffffffffffffffffffffffffffffffffff166108fc479081150290604051600060405180830381858888f193505050501580156102d6573d6000803e3d6000fd5b50600067ffffffffffffffff8111156102f2576102f16108e7565b5b6040519080825280602002602001820160405280156103205781602001602082028036833780820191505090505b50600290805190602001906103369291906104b5565b5050565b606060028054806020026020016040519081016040528092919081815260200182805480156103be57602002820191906000526020600020905b8160009054906101000a900473ffffffffffffffffffffffffffffffffffffffff1673ffffffffffffffffffffffffffffffffffffffff1681526020019060010190808311610374575b5050505050905090565b662386f26fc1000034116103db57600080fd5b6002339080600181540180825580915050600190039060005260206000200160009091909190916101000a81548173ffffffffffffffffffffffffffffffffffffffff021916908373ffffffffffffffffffffffffffffffffffffffff160217905550565b6002818154811061045057600080fd5b906000526020600020016000915054906101000a900473ffffffffffffffffffffffffffffffffffffffff1681565b60004442600260405160200161049793929190610a55565b6040516020818303038152906040528051906020012060001c905090565b82805482825590600052602060002090810192821561052e579160200282015b8281111561052d5782518260006101000a81548173ffffffffffffffffffffffffffffffffffffffff021916908373ffffffffffffffffffffffffffffffffffffffff160217905550916020019190600101906104d5565b5b50905061053b919061053f565b5090565b5b80821115610558576000816000905550600101610540565b5090565b600081519050919050565b600082825260208201905092915050565b60005b8381101561059657808201518184015260208101905061057b565b838111156105a5576000848401525b50505050565b6000601f19601f8301169050919050565b60006105c78261055c565b6105d18185610567565b93506105e1818560208601610578565b6105ea816105ab565b840191505092915050565b6000602082019050818103600083015261060f81846105bc565b905092915050565b600073ffffffffffffffffffffffffffffffffffffffff82169050919050565b600061064282610617565b9050919050565b61065281610637565b82525050565b600060208201905061066d6000830184610649565b92915050565b600081519050919050565b600082825260208201905092915050565b6000819050602082019050919050565b60006106aa82610617565b9050919050565b6106ba8161069f565b82525050565b60006106cc83836106b1565b60208301905092915050565b6000602082019050919050565b60006106f082610673565b6106fa818561067e565b93506107058361068f565b8060005b8381101561073657815161071d88826106c0565b9750610728836106d8565b925050600181019050610709565b5085935050505092915050565b6000602082019050818103600083015261075d81846106e5565b905092915050565b600080fd5b6000819050919050565b61077d8161076a565b811461078857600080fd5b50565b60008135905061079a81610774565b92915050565b6000602082840312156107b6576107b5610765565b5b60006107c48482850161078b565b91505092915050565b6107d68161069f565b82525050565b60006020820190506107f160008301846107cd565b92915050565b7f4e487b7100000000000000000000000000000000000000000000000000000000600052602260045260246000fd5b6000600282049050600182168061083e57607f821691505b60208210811415610852576108516107f7565b5b50919050565b7f4e487b7100000000000000000000000000000000000000000000000000000000600052601260045260246000fd5b60006108928261076a565b915061089d8361076a565b9250826108ad576108ac610858565b5b828206905092915050565b7f4e487b7100000000000000000000000000000000000000000000000000000000600052603260045260246000fd5b7f4e487b7100000000000000000000000000000000000000000000000000000000600052604160045260246000fd5b6000819050919050565b61093161092c8261076a565b610916565b82525050565b600081549050919050565b600081905092915050565b60008190508160005260206000209050919050565b61096b8161069f565b82525050565b600061097d8383610962565b60208301905092915050565b60008160001c9050919050565b600073ffffffffffffffffffffffffffffffffffffffff82169050919050565b60006109c96109c483610989565b610996565b9050919050565b60006109dc82546109b6565b9050919050565b6000600182019050919050565b60006109fb82610937565b610a058185610942565b9350610a108361094d565b8060005b83811015610a4857610a25826109d0565b610a2f8882610971565b9750610a3a836109e3565b925050600181019050610a14565b5085935050505092915050565b6000610a618286610920565b602082019150610a718285610920565b602082019150610a8182846109f0565b915081905094935050505056fea2646970667358221220f85d3a2741418a142443ce17af8abe5bb4379bf274855f7cfd70ca780056a2ff64736f6c634300080a0033",
  "immutableReferences": {},
  "source": "// SPDX-License-Identifier: MIT\n\npragma solidity ^0.8.6;\n\ncontract Lottery {\n    address public manager;\n    string public name;\n    address payable[] public players;\n\n    // msg is global valiable\n\n    /*\n        msg.sender -> sender address\n        msg.value -> value that is send\n        msg.gas   -> gas limit \n        msg.data  \n    */\n\n    constructor() {\n        manager = msg.sender;\n    }\n\n    // payable do not accept any parameter i guess\n    function enter() public payable {\n        // used for validation\n        require(msg.value > (.01 ether));\n\n        players.push(payable(msg.sender));\n    }\n\n    function random() private view returns (uint256) {\n        // shaw3 or keccak256 are same thing used to make hashed\n        return\n            uint256(\n                keccak256(\n                    abi.encodePacked(block.difficulty, block.timestamp, players)\n                )\n            ); // uint(hash) : convert hexadecimal into int\n    }\n\n    function pickWinner() public payable restricted {\n        // // only manager can pickup the winner\n        // require(msg.sender == manager);\n\n        uint256 index = random() % players.length;\n        players[index].transfer(address(this).balance);\n        // this refer to current instance .. this.balance is the sum of the values of all the player submitted\n\n        // reset our lottery instance after winner declaired\n        players = new address payable[](0);\n    }\n\n    // for do not repeat your self .. means same block of code\n    modifier restricted() {\n        // only manager can pickup the winner\n        require(msg.sender == manager);\n        _;\n    }\n\n    function getPlayers() public view returns (address payable[] memory) {\n        return players;\n    }\n\n    // function returnEntries(){\n    //     // cancel the lottery and return the price to respective players\n\n    // }\n}\n",
  "sourcePath": "C:\\Users\\Lenovo\\Desktop\\Blockchain-Truffle-ReactJS-Lottery-master\\contracts\\Lottery.sol",
  "compiler": {
    "name": "solc",
    "version": "0.8.10+commit.fc410830.Emscripten.clang"
  },
  "schemaVersion": "3.4.14",
  "updatedAt": "2023-07-01T02:10:59.021Z",
  "networkType": "ethereum",
  "devdoc": {
    "kind": "dev",
    "methods": {},
    "version": 1
  },
  "userdoc": {
    "kind": "user",
    "methods": {},
    "version": 1
  }
}