{
  "contractName": "Lottery",
  "abi": [
    {
      "inputs": [],
      "stateMutability": "nonpayable",
      "type": "constructor"
    },
    {
      "anonymous": false,
      "inputs": [
        {
          "indexed": false,
          "internalType": "uint256",
          "name": "luckyNumber",
          "type": "uint256"
        }
      ],
      "name": "NoWinnerFound",
      "type": "event"
    },
    {
      "anonymous": false,
      "inputs": [
        {
          "components": [
            {
              "internalType": "uint256",
              "name": "number",
              "type": "uint256"
            },
            {
              "internalType": "address payable",
              "name": "playerAddress",
              "type": "address"
            }
          ],
          "indexed": false,
          "internalType": "struct Lottery.Player[]",
          "name": "players",
          "type": "tuple[]"
        }
      ],
      "name": "PlayerEntered",
      "type": "event"
    },
    {
      "anonymous": false,
      "inputs": [
        {
          "indexed": false,
          "internalType": "uint256",
          "name": "luckyNumber",
          "type": "uint256"
        },
        {
          "indexed": false,
          "internalType": "address",
          "name": "winner",
          "type": "address"
        }
      ],
      "name": "WinnerPicked",
      "type": "event"
    },
    {
      "inputs": [],
      "name": "luckyNumber",
      "outputs": [
        {
          "internalType": "uint256",
          "name": "",
          "type": "uint256"
        }
      ],
      "stateMutability": "view",
      "type": "function",
      "constant": true
    },
    {
      "inputs": [],
      "name": "manager",
      "outputs": [
        {
          "internalType": "address",
          "name": "",
          "type": "address"
        }
      ],
      "stateMutability": "view",
      "type": "function",
      "constant": true
    },
    {
      "inputs": [],
      "name": "name",
      "outputs": [
        {
          "internalType": "string",
          "name": "",
          "type": "string"
        }
      ],
      "stateMutability": "view",
      "type": "function",
      "constant": true
    },
    {
      "inputs": [
        {
          "internalType": "uint256",
          "name": "",
          "type": "uint256"
        }
      ],
      "name": "players",
      "outputs": [
        {
          "internalType": "uint256",
          "name": "number",
          "type": "uint256"
        },
        {
          "internalType": "address payable",
          "name": "playerAddress",
          "type": "address"
        }
      ],
      "stateMutability": "view",
      "type": "function",
      "constant": true
    },
    {
      "inputs": [],
      "name": "prizeAmount",
      "outputs": [
        {
          "internalType": "uint256",
          "name": "",
          "type": "uint256"
        }
      ],
      "stateMutability": "view",
      "type": "function",
      "constant": true
    },
    {
      "inputs": [
        {
          "internalType": "uint256",
          "name": "number",
          "type": "uint256"
        }
      ],
      "name": "enter",
      "outputs": [],
      "stateMutability": "payable",
      "type": "function",
      "payable": true
    },
    {
      "inputs": [],
      "name": "pickWinner",
      "outputs": [],
      "stateMutability": "payable",
      "type": "function",
      "payable": true
    },
    {
      "inputs": [],
      "name": "getPlayers",
      "outputs": [
        {
          "components": [
            {
              "internalType": "uint256",
              "name": "number",
              "type": "uint256"
            },
            {
              "internalType": "address payable",
              "name": "playerAddress",
              "type": "address"
            }
          ],
          "internalType": "struct Lottery.Player[]",
          "name": "",
          "type": "tuple[]"
        }
      ],
      "stateMutability": "view",
      "type": "function",
      "constant": true
    }
  ],
  "bytecode": "0x608060405234801561001057600080fd5b50336000806101000a81548173ffffffffffffffffffffffffffffffffffffffff021916908373ffffffffffffffffffffffffffffffffffffffff16021790555060016004819055506110ff806100686000396000f3fe60806040526004361061007b5760003560e01c80638b5b9ccc1161004e5780638b5b9ccc1461010b578063a59f3e0c14610136578063bf205ebc14610152578063f71d96cb1461017d5761007b565b806306fdde0314610080578063481c6a75146100ab5780635d495aea146100d6578063785fa627146100e0575b600080fd5b34801561008c57600080fd5b506100956101bb565b6040516100a291906108af565b60405180910390f35b3480156100b757600080fd5b506100c0610249565b6040516100cd9190610912565b60405180910390f35b6100de61026d565b005b3480156100ec57600080fd5b506100f56104c9565b6040516101029190610946565b60405180910390f35b34801561011757600080fd5b506101206104cf565b60405161012d9190610a6f565b60405180910390f35b610150600480360381019061014b9190610ac2565b61058e565b005b34801561015e57600080fd5b50610167610706565b6040516101749190610946565b60405180910390f35b34801561018957600080fd5b506101a4600480360381019061019f9190610ac2565b61070c565b6040516101b2929190610afe565b60405180910390f35b600180546101c890610b56565b80601f01602080910402602001604051908101604052809291908181526020018280546101f490610b56565b80156102415780601f1061021657610100808354040283529160200191610241565b820191906000526020600020905b81548152906001019060200180831161022457829003601f168201915b505050505081565b60008054906101000a900473ffffffffffffffffffffffffffffffffffffffff1681565b60008054906101000a900473ffffffffffffffffffffffffffffffffffffffff1673ffffffffffffffffffffffffffffffffffffffff163373ffffffffffffffffffffffffffffffffffffffff16146102fb576040517f08c379a00000000000000000000000000000000000000000000000000000000081526004016102f290610bfa565b60405180910390fd5b610303610760565b600381905550600080600090505b6002805490508110156103ad576003546002828154811061033557610334610c1a565b5b906000526020600020906002020160000154141561039a576002818154811061036157610360610c1a565b5b906000526020600020906002020160010160009054906101000a900473ffffffffffffffffffffffffffffffffffffffff1691506103ad565b80806103a590610c78565b915050610311565b50600073ffffffffffffffffffffffffffffffffffffffff168173ffffffffffffffffffffffffffffffffffffffff16141561042f57600260006103f191906107ac565b7f524e58d82bb07aadec06a8b561ef2be63626ea0aec9c31b2d4aacf6f10297a3d6003546040516104229190610946565b60405180910390a16104c6565b60004790508173ffffffffffffffffffffffffffffffffffffffff166108fc829081150290604051600060405180830381858888f1935050505015801561047a573d6000803e3d6000fd5b506002600061048991906107ac565b7f7286599a58b2822d6e330944038c6d3424134069b04156404050720b942d87ee600354836040516104bc929190610d20565b60405180910390a1505b50565b60045481565b60606002805480602002602001604051908101604052809291908181526020016000905b828210156105855783829060005260206000209060020201604051806040016040529081600082015481526020016001820160009054906101000a900473ffffffffffffffffffffffffffffffffffffffff1673ffffffffffffffffffffffffffffffffffffffff1673ffffffffffffffffffffffffffffffffffffffff1681525050815260200190600101906104f3565b50505050905090565b600081101580156105a0575060098111155b6105df576040517f08c379a00000000000000000000000000000000000000000000000000000000081526004016105d690610d95565b60405180910390fd5b60003411610622576040517f08c379a000000000000000000000000000000000000000000000000000000000815260040161061990610e27565b60405180910390fd5b600260405180604001604052808381526020013373ffffffffffffffffffffffffffffffffffffffff1681525090806001815401808255809150506001900390600052602060002090600202016000909190919091506000820151816000015560208201518160010160006101000a81548173ffffffffffffffffffffffffffffffffffffffff021916908373ffffffffffffffffffffffffffffffffffffffff16021790555050507f64ebd331a30ca4107bb048a713d021fb968f2f18a1a7620f4ccce787a8cc24c660026040516106fb9190610f9b565b60405180910390a150565b60035481565b6002818154811061071c57600080fd5b90600052602060002090600202016000915090508060000154908060010160009054906101000a900473ffffffffffffffffffffffffffffffffffffffff16905082565b600060026001436107719190610fbd565b404260405160200161078492919061103d565b6040516020818303038152906040528051906020012060001c6107a79190611098565b905090565b50805460008255600202906000526020600020908101906107cd91906107d0565b50565b5b80821115610812576000808201600090556001820160006101000a81549073ffffffffffffffffffffffffffffffffffffffff0219169055506002016107d1565b5090565b600081519050919050565b600082825260208201905092915050565b60005b83811015610850578082015181840152602081019050610835565b8381111561085f576000848401525b50505050565b6000601f19601f8301169050919050565b600061088182610816565b61088b8185610821565b935061089b818560208601610832565b6108a481610865565b840191505092915050565b600060208201905081810360008301526108c98184610876565b905092915050565b600073ffffffffffffffffffffffffffffffffffffffff82169050919050565b60006108fc826108d1565b9050919050565b61090c816108f1565b82525050565b60006020820190506109276000830184610903565b92915050565b6000819050919050565b6109408161092d565b82525050565b600060208201905061095b6000830184610937565b92915050565b600081519050919050565b600082825260208201905092915050565b6000819050602082019050919050565b6109968161092d565b82525050565b60006109a7826108d1565b9050919050565b6109b78161099c565b82525050565b6040820160008201516109d3600085018261098d565b5060208201516109e660208501826109ae565b50505050565b60006109f883836109bd565b60408301905092915050565b6000602082019050919050565b6000610a1c82610961565b610a26818561096c565b9350610a318361097d565b8060005b83811015610a62578151610a4988826109ec565b9750610a5483610a04565b925050600181019050610a35565b5085935050505092915050565b60006020820190508181036000830152610a898184610a11565b905092915050565b600080fd5b610a9f8161092d565b8114610aaa57600080fd5b50565b600081359050610abc81610a96565b92915050565b600060208284031215610ad857610ad7610a91565b5b6000610ae684828501610aad565b91505092915050565b610af88161099c565b82525050565b6000604082019050610b136000830185610937565b610b206020830184610aef565b9392505050565b7f4e487b7100000000000000000000000000000000000000000000000000000000600052602260045260246000fd5b60006002820490506001821680610b6e57607f821691505b60208210811415610b8257610b81610b27565b5b50919050565b7f4f6e6c7920746865206d616e616765722063616e207069636b2074686520776960008201527f6e6e657200000000000000000000000000000000000000000000000000000000602082015250565b6000610be4602483610821565b9150610bef82610b88565b604082019050919050565b60006020820190508181036000830152610c1381610bd7565b9050919050565b7f4e487b7100000000000000000000000000000000000000000000000000000000600052603260045260246000fd5b7f4e487b7100000000000000000000000000000000000000000000000000000000600052601160045260246000fd5b6000610c838261092d565b91507fffffffffffffffffffffffffffffffffffffffffffffffffffffffffffffffff821415610cb657610cb5610c49565b5b600182019050919050565b6000819050919050565b6000610ce6610ce1610cdc846108d1565b610cc1565b6108d1565b9050919050565b6000610cf882610ccb565b9050919050565b6000610d0a82610ced565b9050919050565b610d1a81610cff565b82525050565b6000604082019050610d356000830185610937565b610d426020830184610d11565b9392505050565b7f4e756d6265722073686f756c64206265206265747765656e203020616e642039600082015250565b6000610d7f602083610821565b9150610d8a82610d49565b602082019050919050565b60006020820190508181036000830152610dae81610d72565b9050919050565b7f506c656173652073656e6420736f6d6520657468657220746f20656e7465722060008201527f746865206c6f7474657279000000000000000000000000000000000000000000602082015250565b6000610e11602b83610821565b9150610e1c82610db5565b604082019050919050565b60006020820190508181036000830152610e4081610e04565b9050919050565b600081549050919050565b60008190508160005260206000209050919050565b60008160001c9050919050565b6000819050919050565b6000610e91610e8c83610e67565b610e74565b9050919050565b600073ffffffffffffffffffffffffffffffffffffffff82169050919050565b6000610ecb610ec683610e67565b610e98565b9050919050565b604082016000808301549050610ee781610e7e565b610ef4600086018261098d565b5060018301549050610f0581610eb8565b610f1260208601826109ae565b5050505050565b6000610f258383610ed2565b60408301905092915050565b6000600282019050919050565b6000610f4982610e47565b610f53818561096c565b9350610f5e83610e52565b8060005b83811015610f8e5781610f758882610f19565b9750610f8083610f31565b925050600181019050610f62565b5085935050505092915050565b60006020820190508181036000830152610fb58184610f3e565b905092915050565b6000610fc88261092d565b9150610fd38361092d565b925082821015610fe657610fe5610c49565b5b828203905092915050565b6000819050919050565b6000819050919050565b61101661101182610ff1565b610ffb565b82525050565b6000819050919050565b6110376110328261092d565b61101c565b82525050565b60006110498285611005565b6020820191506110598284611026565b6020820191508190509392505050565b7f4e487b7100000000000000000000000000000000000000000000000000000000600052601260045260246000fd5b60006110a38261092d565b91506110ae8361092d565b9250826110be576110bd611069565b5b82820690509291505056fea26469706673582212201dae10456272f448ea90f7a05714ad185dbab5c6a05acd5458ae22c0a7e6428164736f6c634300080a0033",
  "immutableReferences": {},
  "source": "// SPDX-License-Identifier: MIT\r\n\r\npragma solidity ^0.8.6;\r\n\r\ncontract Lottery {\r\n    address public manager;\r\n    string public name;\r\n    struct Player {\r\n        uint number;\r\n        address payable playerAddress;\r\n    }\r\n    Player[] public players;\r\n    uint public luckyNumber;\r\n    uint public prizeAmount;\r\n\r\n    event PlayerEntered(Player[] players);\r\n    event WinnerPicked(uint256 luckyNumber, address winner);\r\n    event NoWinnerFound(uint256 luckyNumber);\r\n\r\n    constructor() {\r\n        manager = msg.sender;\r\n        prizeAmount = 1;\r\n    }\r\n\r\n    function enter(uint number) public payable {\r\n        require(number >= 0 && number <= 9, \"Number should be between 0 and 9\");\r\n        require(msg.value > 0, \"Please send some ether to enter the lottery\");\r\n\r\n        players.push(Player(number, payable(msg.sender)));\r\n\r\n        emit PlayerEntered(players);\r\n    }\r\n\r\n    function random() private view returns (uint256) {\r\n        return uint256(keccak256(abi.encodePacked(blockhash(block.number - 1), block.timestamp))) % 2;\r\n    }\r\n\r\n    function pickWinner() public payable restricted {\r\n        luckyNumber = random();\r\n        address payable winner;\r\n\r\n        for (uint256 i = 0; i < players.length; i++) {\r\n            if (players[i].number == luckyNumber) {\r\n                winner = players[i].playerAddress;\r\n                break;\r\n            }\r\n        }\r\n\r\n        if (winner == address(0)) {\r\n            delete players;\r\n\r\n            emit NoWinnerFound(luckyNumber);\r\n        } else {\r\n            uint256 prize = address(this).balance;\r\n            winner.transfer(prize);\r\n\r\n            delete players;\r\n\r\n            emit WinnerPicked(luckyNumber, winner);\r\n        }\r\n    }\r\n\r\n    modifier restricted() {\r\n        require(msg.sender == manager, \"Only the manager can pick the winner\");\r\n        _;\r\n    }\r\n\r\n    function getPlayers() public view returns (Player[] memory) {\r\n        return players;\r\n    }\r\n\r\n    // function getPrizeAmount() public view returns (uint256) {\r\n    //     return prizeAmount;\r\n    // }\r\n}\r\n",
  "sourcePath": "D:\\Do an\\bingo-game\\contracts\\Lottery.sol",
  "compiler": {
    "name": "solc",
    "version": "0.8.10+commit.fc410830.Emscripten.clang"
  },
  "schemaVersion": "3.4.14",
  "updatedAt": "2023-07-06T09:04:23.155Z",
  "networkType": "ethereum",
  "devdoc": {
    "kind": "dev",
    "methods": {},
    "version": 1
  },
  "userdoc": {
    "kind": "user",
    "methods": {},
    "version": 1
  }
}