{
  "contractName": "Lottery",
  "abi": [
    {
      "inputs": [],
      "stateMutability": "nonpayable",
      "type": "constructor"
    },
    {
      "anonymous": false,
      "inputs": [
        {
          "indexed": false,
          "internalType": "uint256",
          "name": "luckyNumber",
          "type": "uint256"
        }
      ],
      "name": "NoWinnerFound",
      "type": "event"
    },
    {
      "anonymous": false,
      "inputs": [
        {
          "components": [
            {
              "internalType": "uint256",
              "name": "number",
              "type": "uint256"
            },
            {
              "internalType": "address payable",
              "name": "playerAddress",
              "type": "address"
            }
          ],
          "indexed": false,
          "internalType": "struct Lottery.Player[]",
          "name": "players",
          "type": "tuple[]"
        }
      ],
      "name": "PlayerEntered",
      "type": "event"
    },
    {
      "anonymous": false,
      "inputs": [
        {
          "indexed": false,
          "internalType": "uint256",
          "name": "luckyNumber",
          "type": "uint256"
        },
        {
          "indexed": false,
          "internalType": "address",
          "name": "winner",
          "type": "address"
        }
      ],
      "name": "WinnerPicked",
      "type": "event"
    },
    {
      "inputs": [],
      "name": "luckyNumber",
      "outputs": [
        {
          "internalType": "uint256",
          "name": "",
          "type": "uint256"
        }
      ],
      "stateMutability": "view",
      "type": "function"
    },
    {
      "inputs": [],
      "name": "manager",
      "outputs": [
        {
          "internalType": "address",
          "name": "",
          "type": "address"
        }
      ],
      "stateMutability": "view",
      "type": "function"
    },
    {
      "inputs": [],
      "name": "name",
      "outputs": [
        {
          "internalType": "string",
          "name": "",
          "type": "string"
        }
      ],
      "stateMutability": "view",
      "type": "function"
    },
    {
      "inputs": [
        {
          "internalType": "uint256",
          "name": "",
          "type": "uint256"
        }
      ],
      "name": "players",
      "outputs": [
        {
          "internalType": "uint256",
          "name": "number",
          "type": "uint256"
        },
        {
          "internalType": "address payable",
          "name": "playerAddress",
          "type": "address"
        }
      ],
      "stateMutability": "view",
      "type": "function"
    },
    {
      "inputs": [],
      "name": "winner",
      "outputs": [
        {
          "internalType": "address payable",
          "name": "",
          "type": "address"
        }
      ],
      "stateMutability": "view",
      "type": "function"
    },
    {
      "inputs": [
        {
          "internalType": "uint256",
          "name": "number",
          "type": "uint256"
        }
      ],
      "name": "enter",
      "outputs": [],
      "stateMutability": "payable",
      "type": "function"
    },
    {
      "inputs": [],
      "name": "pickWinner",
      "outputs": [],
      "stateMutability": "payable",
      "type": "function"
    },
    {
      "inputs": [],
      "name": "getPlayers",
      "outputs": [
        {
          "components": [
            {
              "internalType": "uint256",
              "name": "number",
              "type": "uint256"
            },
            {
              "internalType": "address payable",
              "name": "playerAddress",
              "type": "address"
            }
          ],
          "internalType": "struct Lottery.Player[]",
          "name": "",
          "type": "tuple[]"
        }
      ],
      "stateMutability": "view",
      "type": "function"
    },
    {
      "inputs": [],
      "name": "getWinnerData",
      "outputs": [
        {
          "internalType": "address payable",
          "name": "",
          "type": "address"
        },
        {
          "internalType": "uint256",
          "name": "",
          "type": "uint256"
        }
      ],
      "stateMutability": "view",
      "type": "function"
    }
  ],
  "bytecode": "0x608060405234801561001057600080fd5b50336000806101000a81548173ffffffffffffffffffffffffffffffffffffffff021916908373ffffffffffffffffffffffffffffffffffffffff1602179055506112fb806100606000396000f3fe6080604052600436106100865760003560e01c80638b5b9ccc116100595780638b5b9ccc14610117578063a59f3e0c14610142578063bf205ebc1461015e578063dfbf53ae14610189578063f71d96cb146101b457610086565b806306fdde031461008b5780633c3418f9146100b6578063481c6a75146100e25780635d495aea1461010d575b600080fd5b34801561009757600080fd5b506100a06101f2565b6040516100ad9190610a5a565b60405180910390f35b3480156100c257600080fd5b506100cb610280565b6040516100d9929190610ad6565b60405180910390f35b3480156100ee57600080fd5b506100f7610343565b6040516101049190610b20565b60405180910390f35b610115610367565b005b34801561012357600080fd5b5061012c610661565b6040516101399190610c37565b60405180910390f35b61015c60048036038101906101579190610c8a565b610720565b005b34801561016a57600080fd5b50610173610898565b6040516101809190610cb7565b60405180910390f35b34801561019557600080fd5b5061019e61089e565b6040516101ab9190610cd2565b60405180910390f35b3480156101c057600080fd5b506101db60048036038101906101d69190610c8a565b6108c4565b6040516101e9929190610ced565b60405180910390f35b600180546101ff90610d45565b80601f016020809104026020016040519081016040528092919081815260200182805461022b90610d45565b80156102785780601f1061024d57610100808354040283529160200191610278565b820191906000526020600020905b81548152906001019060200180831161025b57829003601f168201915b505050505081565b600080600073ffffffffffffffffffffffffffffffffffffffff16600460009054906101000a900473ffffffffffffffffffffffffffffffffffffffff1673ffffffffffffffffffffffffffffffffffffffff161415610315576040517f08c379a000000000000000000000000000000000000000000000000000000000815260040161030c90610dc3565b60405180910390fd5b600460009054906101000a900473ffffffffffffffffffffffffffffffffffffffff16600354915091509091565b60008054906101000a900473ffffffffffffffffffffffffffffffffffffffff1681565b60008054906101000a900473ffffffffffffffffffffffffffffffffffffffff1673ffffffffffffffffffffffffffffffffffffffff163373ffffffffffffffffffffffffffffffffffffffff16146103f5576040517f08c379a00000000000000000000000000000000000000000000000000000000081526004016103ec90610e55565b60405180910390fd5b6103fd610918565b60038190555060005b6002805490508110156104e0576003546002828154811061042a57610429610e75565b5b90600052602060002090600202016000015414156104cd576002818154811061045657610455610e75565b5b906000526020600020906002020160010160009054906101000a900473ffffffffffffffffffffffffffffffffffffffff16600460006101000a81548173ffffffffffffffffffffffffffffffffffffffff021916908373ffffffffffffffffffffffffffffffffffffffff1602179055506104e0565b80806104d890610ed3565b915050610406565b50600073ffffffffffffffffffffffffffffffffffffffff16600460009054906101000a900473ffffffffffffffffffffffffffffffffffffffff1673ffffffffffffffffffffffffffffffffffffffff16141561058457600260006105469190610957565b7f524e58d82bb07aadec06a8b561ef2be63626ea0aec9c31b2d4aacf6f10297a3d6003546040516105779190610cb7565b60405180910390a161065f565b6000479050600460009054906101000a900473ffffffffffffffffffffffffffffffffffffffff1673ffffffffffffffffffffffffffffffffffffffff166108fc829081150290604051600060405180830381858888f193505050501580156105f1573d6000803e3d6000fd5b50600260006106009190610957565b7f7286599a58b2822d6e330944038c6d3424134069b04156404050720b942d87ee600354600460009054906101000a900473ffffffffffffffffffffffffffffffffffffffff16604051610655929190610f7b565b60405180910390a1505b565b60606002805480602002602001604051908101604052809291908181526020016000905b828210156107175783829060005260206000209060020201604051806040016040529081600082015481526020016001820160009054906101000a900473ffffffffffffffffffffffffffffffffffffffff1673ffffffffffffffffffffffffffffffffffffffff1673ffffffffffffffffffffffffffffffffffffffff168152505081526020019060010190610685565b50505050905090565b60008110158015610732575060098111155b610771576040517f08c379a000000000000000000000000000000000000000000000000000000000815260040161076890610ff0565b60405180910390fd5b600034116107b4576040517f08c379a00000000000000000000000000000000000000000000000000000000081526004016107ab90611082565b60405180910390fd5b600260405180604001604052808381526020013373ffffffffffffffffffffffffffffffffffffffff1681525090806001815401808255809150506001900390600052602060002090600202016000909190919091506000820151816000015560208201518160010160006101000a81548173ffffffffffffffffffffffffffffffffffffffff021916908373ffffffffffffffffffffffffffffffffffffffff16021790555050507f64ebd331a30ca4107bb048a713d021fb968f2f18a1a7620f4ccce787a8cc24c6600260405161088d91906111f6565b60405180910390a150565b60035481565b600460009054906101000a900473ffffffffffffffffffffffffffffffffffffffff1681565b600281815481106108d457600080fd5b90600052602060002090600202016000915090508060000154908060010160009054906101000a900473ffffffffffffffffffffffffffffffffffffffff16905082565b60006002444260405160200161092f929190611239565b6040516020818303038152906040528051906020012060001c6109529190611294565b905090565b5080546000825560020290600052602060002090810190610978919061097b565b50565b5b808211156109bd576000808201600090556001820160006101000a81549073ffffffffffffffffffffffffffffffffffffffff02191690555060020161097c565b5090565b600081519050919050565b600082825260208201905092915050565b60005b838110156109fb5780820151818401526020810190506109e0565b83811115610a0a576000848401525b50505050565b6000601f19601f8301169050919050565b6000610a2c826109c1565b610a3681856109cc565b9350610a468185602086016109dd565b610a4f81610a10565b840191505092915050565b60006020820190508181036000830152610a748184610a21565b905092915050565b600073ffffffffffffffffffffffffffffffffffffffff82169050919050565b6000610aa782610a7c565b9050919050565b610ab781610a9c565b82525050565b6000819050919050565b610ad081610abd565b82525050565b6000604082019050610aeb6000830185610aae565b610af86020830184610ac7565b9392505050565b6000610b0a82610a7c565b9050919050565b610b1a81610aff565b82525050565b6000602082019050610b356000830184610b11565b92915050565b600081519050919050565b600082825260208201905092915050565b6000819050602082019050919050565b610b7081610abd565b82525050565b610b7f81610a9c565b82525050565b604082016000820151610b9b6000850182610b67565b506020820151610bae6020850182610b76565b50505050565b6000610bc08383610b85565b60408301905092915050565b6000602082019050919050565b6000610be482610b3b565b610bee8185610b46565b9350610bf983610b57565b8060005b83811015610c2a578151610c118882610bb4565b9750610c1c83610bcc565b925050600181019050610bfd565b5085935050505092915050565b60006020820190508181036000830152610c518184610bd9565b905092915050565b600080fd5b610c6781610abd565b8114610c7257600080fd5b50565b600081359050610c8481610c5e565b92915050565b600060208284031215610ca057610c9f610c59565b5b6000610cae84828501610c75565b91505092915050565b6000602082019050610ccc6000830184610ac7565b92915050565b6000602082019050610ce76000830184610aae565b92915050565b6000604082019050610d026000830185610ac7565b610d0f6020830184610aae565b9392505050565b7f4e487b7100000000000000000000000000000000000000000000000000000000600052602260045260246000fd5b60006002820490506001821680610d5d57607f821691505b60208210811415610d7157610d70610d16565b5b50919050565b7f4e6f2077696e6e657220666f756e640000000000000000000000000000000000600082015250565b6000610dad600f836109cc565b9150610db882610d77565b602082019050919050565b60006020820190508181036000830152610ddc81610da0565b9050919050565b7f4f6e6c7920746865206d616e616765722063616e207069636b2074686520776960008201527f6e6e657200000000000000000000000000000000000000000000000000000000602082015250565b6000610e3f6024836109cc565b9150610e4a82610de3565b604082019050919050565b60006020820190508181036000830152610e6e81610e32565b9050919050565b7f4e487b7100000000000000000000000000000000000000000000000000000000600052603260045260246000fd5b7f4e487b7100000000000000000000000000000000000000000000000000000000600052601160045260246000fd5b6000610ede82610abd565b91507fffffffffffffffffffffffffffffffffffffffffffffffffffffffffffffffff821415610f1157610f10610ea4565b5b600182019050919050565b6000819050919050565b6000610f41610f3c610f3784610a7c565b610f1c565b610a7c565b9050919050565b6000610f5382610f26565b9050919050565b6000610f6582610f48565b9050919050565b610f7581610f5a565b82525050565b6000604082019050610f906000830185610ac7565b610f9d6020830184610f6c565b9392505050565b7f4e756d6265722073686f756c64206265206265747765656e203020616e642039600082015250565b6000610fda6020836109cc565b9150610fe582610fa4565b602082019050919050565b6000602082019050818103600083015261100981610fcd565b9050919050565b7f506c656173652073656e6420736f6d6520657468657220746f20656e7465722060008201527f746865206c6f7474657279000000000000000000000000000000000000000000602082015250565b600061106c602b836109cc565b915061107782611010565b604082019050919050565b6000602082019050818103600083015261109b8161105f565b9050919050565b600081549050919050565b60008190508160005260206000209050919050565b60008160001c9050919050565b6000819050919050565b60006110ec6110e7836110c2565b6110cf565b9050919050565b600073ffffffffffffffffffffffffffffffffffffffff82169050919050565b6000611126611121836110c2565b6110f3565b9050919050565b604082016000808301549050611142816110d9565b61114f6000860182610b67565b506001830154905061116081611113565b61116d6020860182610b76565b5050505050565b6000611180838361112d565b60408301905092915050565b6000600282019050919050565b60006111a4826110a2565b6111ae8185610b46565b93506111b9836110ad565b8060005b838110156111e957816111d08882611174565b97506111db8361118c565b9250506001810190506111bd565b5085935050505092915050565b600060208201905081810360008301526112108184611199565b905092915050565b6000819050919050565b61123361122e82610abd565b611218565b82525050565b60006112458285611222565b6020820191506112558284611222565b6020820191508190509392505050565b7f4e487b7100000000000000000000000000000000000000000000000000000000600052601260045260246000fd5b600061129f82610abd565b91506112aa83610abd565b9250826112ba576112b9611265565b5b82820690509291505056fea26469706673582212203cfac6993b1d51aec08f5675fdf47fddb200e6953500b132a3f10c876e15579664736f6c634300080a0033",
  "immutableReferences": {},
  "source": "// SPDX-License-Identifier: MIT\r\n\r\npragma solidity ^0.8.6;\r\n\r\ncontract Lottery {\r\n    address public manager;\r\n    string public name;\r\n    struct Player {\r\n        uint number;\r\n        address payable playerAddress;\r\n    }\r\n    Player[] public players;\r\n    uint public luckyNumber;\r\n    address payable public winner;\r\n\r\n    event PlayerEntered(Player[] players);\r\n    event WinnerPicked(uint256 luckyNumber, address winner);\r\n    event NoWinnerFound(uint256 luckyNumber);\r\n\r\n    constructor() {\r\n        manager = msg.sender;\r\n    }\r\n\r\n    function enter(uint number) public payable {\r\n        require(number >= 0 && number <= 9, \"Number should be between 0 and 9\");\r\n        require(msg.value > 0, \"Please send some ether to enter the lottery\");\r\n\r\n        players.push(Player(number, payable(msg.sender)));\r\n\r\n        emit PlayerEntered(players);\r\n    }\r\n\r\n    function random() private view returns (uint256) {\r\n        return uint256(keccak256(abi.encodePacked(block.difficulty, block.timestamp))) % 2;\r\n    }\r\n\r\n    function pickWinner() public payable restricted {\r\n        luckyNumber = random();\r\n\r\n        for (uint256 i = 0; i < players.length; i++) {\r\n            if (players[i].number == luckyNumber) {\r\n                winner = players[i].playerAddress;\r\n                break;\r\n            }\r\n        }\r\n\r\n        if (winner == address(0)) {\r\n            delete players;\r\n\r\n            emit NoWinnerFound(luckyNumber);\r\n        } else {\r\n            uint256 prize = address(this).balance;\r\n            winner.transfer(prize);\r\n\r\n            delete players;\r\n\r\n            emit WinnerPicked(luckyNumber, winner);\r\n        }\r\n    }\r\n\r\n    modifier restricted() {\r\n        require(msg.sender == manager, \"Only the manager can pick the winner\");\r\n        _;\r\n    }\r\n\r\n    function getPlayers() public view returns (Player[] memory) {\r\n        return players;\r\n    }\r\n\r\n    function getWinnerData() public view returns (address payable, uint) {\r\n        require(winner != address(0), \"No winner found\");\r\n        return (winner, luckyNumber);\r\n    }\r\n}\r\n",
  "sourcePath": "D:\\Do an\\bingo-game\\contracts\\Lottery.sol",
  "compiler": {
    "name": "solc",
    "version": "0.8.10+commit.fc410830.Emscripten.clang"
  },
  "schemaVersion": "3.4.14",
  "updatedAt": "2023-07-04T08:03:14.584Z",
  "devdoc": {
    "kind": "dev",
    "methods": {},
    "version": 1
  },
  "userdoc": {
    "kind": "user",
    "methods": {},
    "version": 1
  }
}