{
  "contractName": "Lottery",
  "abi": [
    {
      "inputs": [],
      "stateMutability": "nonpayable",
      "type": "constructor"
    },
    {
      "inputs": [],
      "name": "luckyNumber",
      "outputs": [
        {
          "internalType": "uint256",
          "name": "",
          "type": "uint256"
        }
      ],
      "stateMutability": "view",
      "type": "function",
      "constant": true
    },
    {
      "inputs": [],
      "name": "manager",
      "outputs": [
        {
          "internalType": "address",
          "name": "",
          "type": "address"
        }
      ],
      "stateMutability": "view",
      "type": "function",
      "constant": true
    },
    {
      "inputs": [],
      "name": "name",
      "outputs": [
        {
          "internalType": "string",
          "name": "",
          "type": "string"
        }
      ],
      "stateMutability": "view",
      "type": "function",
      "constant": true
    },
    {
      "inputs": [
        {
          "internalType": "uint256",
          "name": "",
          "type": "uint256"
        }
      ],
      "name": "players",
      "outputs": [
        {
          "internalType": "address payable",
          "name": "",
          "type": "address"
        }
      ],
      "stateMutability": "view",
      "type": "function",
      "constant": true
    },
    {
      "inputs": [],
      "name": "enter",
      "outputs": [],
      "stateMutability": "payable",
      "type": "function",
      "payable": true
    },
    {
      "inputs": [],
      "name": "pickWinner",
      "outputs": [],
      "stateMutability": "payable",
      "type": "function",
      "payable": true
    },
    {
      "inputs": [],
      "name": "getPlayers",
      "outputs": [
        {
          "internalType": "address payable[]",
          "name": "",
          "type": "address[]"
        }
      ],
      "stateMutability": "view",
      "type": "function",
      "constant": true
    },
    {
      "inputs": [],
      "name": "getWinner",
      "outputs": [
        {
          "internalType": "uint256",
          "name": "",
          "type": "uint256"
        },
        {
          "internalType": "address",
          "name": "",
          "type": "address"
        }
      ],
      "stateMutability": "view",
      "type": "function",
      "constant": true
    }
  ],
  "bytecode": "0x608060405234801561001057600080fd5b50336000806101000a81548173ffffffffffffffffffffffffffffffffffffffff021916908373ffffffffffffffffffffffffffffffffffffffff160217905550610ca0806100606000396000f3fe60806040526004361061007b5760003560e01c80638e7ea5b21161004e5780638e7ea5b21461010b578063bf205ebc14610137578063e97dcb6214610162578063f71d96cb1461016c5761007b565b806306fdde0314610080578063481c6a75146100ab5780635d495aea146100d65780638b5b9ccc146100e0575b600080fd5b34801561008c57600080fd5b506100956101a9565b6040516100a29190610712565b60405180910390f35b3480156100b757600080fd5b506100c0610237565b6040516100cd9190610775565b60405180910390f35b6100de61025b565b005b3480156100ec57600080fd5b506100f56103ba565b6040516101029190610860565b60405180910390f35b34801561011757600080fd5b50610120610448565b60405161012e92919061089b565b60405180910390f35b34801561014357600080fd5b5061014c6104df565b60405161015991906108c4565b60405180910390f35b61016a6104e5565b005b34801561017857600080fd5b50610193600480360381019061018e9190610910565b61055d565b6040516101a0919061094c565b60405180910390f35b600180546101b690610996565b80601f01602080910402602001604051908101604052809291908181526020018280546101e290610996565b801561022f5780601f106102045761010080835404028352916020019161022f565b820191906000526020600020905b81548152906001019060200180831161021257829003601f168201915b505050505081565b60008054906101000a900473ffffffffffffffffffffffffffffffffffffffff1681565b60008054906101000a900473ffffffffffffffffffffffffffffffffffffffff1673ffffffffffffffffffffffffffffffffffffffff163373ffffffffffffffffffffffffffffffffffffffff16146102b357600080fd5b6002805490506102c161059c565b6102cb91906109f7565b6003819055506002600354815481106102e7576102e6610a28565b5b9060005260206000200160009054906101000a900473ffffffffffffffffffffffffffffffffffffffff1673ffffffffffffffffffffffffffffffffffffffff166108fc479081150290604051600060405180830381858888f19350505050158015610357573d6000803e3d6000fd5b50600067ffffffffffffffff81111561037357610372610a57565b5b6040519080825280602002602001820160405280156103a15781602001602082028036833780820191505090505b50600290805190602001906103b79291906105d2565b50565b6060600280548060200260200160405190810160405280929190818152602001828054801561043e57602002820191906000526020600020905b8160009054906101000a900473ffffffffffffffffffffffffffffffffffffffff1673ffffffffffffffffffffffffffffffffffffffff16815260200190600101908083116103f4575b5050505050905090565b600080600060028054905011610493576040517f08c379a000000000000000000000000000000000000000000000000000000000815260040161048a90610ad2565b60405180910390fd5b6003546002600354815481106104ac576104ab610a28565b5b9060005260206000200160009054906101000a900473ffffffffffffffffffffffffffffffffffffffff16915091509091565b60035481565b662386f26fc1000034116104f857600080fd5b6002339080600181540180825580915050600190039060005260206000200160009091909190916101000a81548173ffffffffffffffffffffffffffffffffffffffff021916908373ffffffffffffffffffffffffffffffffffffffff160217905550565b6002818154811061056d57600080fd5b906000526020600020016000915054906101000a900473ffffffffffffffffffffffffffffffffffffffff1681565b6000444260026040516020016105b493929190610c31565b6040516020818303038152906040528051906020012060001c905090565b82805482825590600052602060002090810192821561064b579160200282015b8281111561064a5782518260006101000a81548173ffffffffffffffffffffffffffffffffffffffff021916908373ffffffffffffffffffffffffffffffffffffffff160217905550916020019190600101906105f2565b5b509050610658919061065c565b5090565b5b8082111561067557600081600090555060010161065d565b5090565b600081519050919050565b600082825260208201905092915050565b60005b838110156106b3578082015181840152602081019050610698565b838111156106c2576000848401525b50505050565b6000601f19601f8301169050919050565b60006106e482610679565b6106ee8185610684565b93506106fe818560208601610695565b610707816106c8565b840191505092915050565b6000602082019050818103600083015261072c81846106d9565b905092915050565b600073ffffffffffffffffffffffffffffffffffffffff82169050919050565b600061075f82610734565b9050919050565b61076f81610754565b82525050565b600060208201905061078a6000830184610766565b92915050565b600081519050919050565b600082825260208201905092915050565b6000819050602082019050919050565b60006107c782610734565b9050919050565b6107d7816107bc565b82525050565b60006107e983836107ce565b60208301905092915050565b6000602082019050919050565b600061080d82610790565b610817818561079b565b9350610822836107ac565b8060005b8381101561085357815161083a88826107dd565b9750610845836107f5565b925050600181019050610826565b5085935050505092915050565b6000602082019050818103600083015261087a8184610802565b905092915050565b6000819050919050565b61089581610882565b82525050565b60006040820190506108b0600083018561088c565b6108bd6020830184610766565b9392505050565b60006020820190506108d9600083018461088c565b92915050565b600080fd5b6108ed81610882565b81146108f857600080fd5b50565b60008135905061090a816108e4565b92915050565b600060208284031215610926576109256108df565b5b6000610934848285016108fb565b91505092915050565b610946816107bc565b82525050565b6000602082019050610961600083018461093d565b92915050565b7f4e487b7100000000000000000000000000000000000000000000000000000000600052602260045260246000fd5b600060028204905060018216806109ae57607f821691505b602082108114156109c2576109c1610967565b5b50919050565b7f4e487b7100000000000000000000000000000000000000000000000000000000600052601260045260246000fd5b6000610a0282610882565b9150610a0d83610882565b925082610a1d57610a1c6109c8565b5b828206905092915050565b7f4e487b7100000000000000000000000000000000000000000000000000000000600052603260045260246000fd5b7f4e487b7100000000000000000000000000000000000000000000000000000000600052604160045260246000fd5b7f4e6f20706c617965727320696e20746865206c6f747465727900000000000000600082015250565b6000610abc601983610684565b9150610ac782610a86565b602082019050919050565b60006020820190508181036000830152610aeb81610aaf565b9050919050565b6000819050919050565b610b0d610b0882610882565b610af2565b82525050565b600081549050919050565b600081905092915050565b60008190508160005260206000209050919050565b610b47816107bc565b82525050565b6000610b598383610b3e565b60208301905092915050565b60008160001c9050919050565b600073ffffffffffffffffffffffffffffffffffffffff82169050919050565b6000610ba5610ba083610b65565b610b72565b9050919050565b6000610bb88254610b92565b9050919050565b6000600182019050919050565b6000610bd782610b13565b610be18185610b1e565b9350610bec83610b29565b8060005b83811015610c2457610c0182610bac565b610c0b8882610b4d565b9750610c1683610bbf565b925050600181019050610bf0565b5085935050505092915050565b6000610c3d8286610afc565b602082019150610c4d8285610afc565b602082019150610c5d8284610bcc565b915081905094935050505056fea264697066735822122025a6c47114d3aa9c610272a12a1cbf14bbde93c2c99b20aac2091d35d7e1a1c064736f6c634300080a0033",
  "immutableReferences": {},
  "source": "// SPDX-License-Identifier: MIT\r\n\r\npragma solidity ^0.8.6;\r\n\r\ncontract Lottery {\r\n    address public manager;\r\n    string public name;\r\n    address payable[] public players;\r\n    uint public luckyNumber;\r\n\r\n    constructor() {\r\n        manager = msg.sender;\r\n    }\r\n\r\n    // payable do not accept any parameter i guess\r\n    function enter() public payable {\r\n        // used for validation\r\n        require(msg.value > (.01 ether));\r\n\r\n        players.push(payable(msg.sender));\r\n    }\r\n\r\n    function random() private view returns (uint256) {\r\n        // shaw3 or keccak256 are same thing used to make hashed\r\n        return\r\n            uint256(\r\n                keccak256(\r\n                    abi.encodePacked(block.difficulty, block.timestamp, players)\r\n                )\r\n            ); // uint(hash) : convert hexadecimal into int\r\n    }\r\n\r\n    function pickWinner() public payable restricted {\r\n        luckyNumber = random() % players.length;\r\n        players[luckyNumber].transfer(address(this).balance);\r\n        // this refer to current instance .. this.balance is the sum of the values of all the player submitted\r\n\r\n        // reset our lottery instance after winner declaired\r\n        players = new address payable[](0);\r\n    }\r\n\r\n    // for do not repeat your self .. means same block of code\r\n    modifier restricted() {\r\n        // only manager can pickup the winner\r\n        require(msg.sender == manager);\r\n        _;\r\n    }\r\n\r\n    function getPlayers() public view returns (address payable[] memory) {\r\n        return players;\r\n    }\r\n\r\n    function getWinner() public view returns (uint, address) {\r\n        require(players.length > 0, \"No players in the lottery\");\r\n        return (luckyNumber, players[luckyNumber]);\r\n    }\r\n}\r\n",
  "sourcePath": "D:\\Do an\\bingo-game\\contracts\\Lottery.sol",
  "compiler": {
    "name": "solc",
    "version": "0.8.10+commit.fc410830.Emscripten.clang"
  },
  "schemaVersion": "3.4.14",
  "updatedAt": "2023-07-03T17:20:59.288Z",
  "networkType": "ethereum",
  "devdoc": {
    "kind": "dev",
    "methods": {},
    "version": 1
  },
  "userdoc": {
    "kind": "user",
    "methods": {},
    "version": 1
  }
}